{
  "contractName": "Driver",
  "abi": [
    {
      "constant": true,
      "inputs": [
        {
          "name": "",
          "type": "uint256"
        }
      ],
      "name": "amounts",
      "outputs": [
        {
          "name": "",
          "type": "uint256"
        }
      ],
      "payable": false,
      "stateMutability": "view",
      "type": "function"
    },
    {
      "inputs": [],
      "payable": true,
      "stateMutability": "payable",
      "type": "constructor"
    },
    {
      "payable": true,
      "stateMutability": "payable",
      "type": "fallback"
    },
    {
      "anonymous": false,
      "inputs": [
        {
          "indexed": false,
          "name": "personWhoTried",
          "type": "address"
        },
        {
          "indexed": false,
          "name": "personWhoWasAdded",
          "type": "address"
        }
      ],
      "name": "SomeoneTriedToAddSomeone",
      "type": "event"
    },
    {
      "anonymous": false,
      "inputs": [
        {
          "indexed": false,
          "name": "personWhoSent",
          "type": "address"
        },
        {
          "indexed": false,
          "name": "moneyHeSent",
          "type": "uint256"
        }
      ],
      "name": "SomeoneAddedMoneyToThePool",
      "type": "event"
    },
    {
      "anonymous": false,
      "inputs": [
        {
          "indexed": false,
          "name": "personWhoRequested",
          "type": "address"
        },
        {
          "indexed": false,
          "name": "requestedM",
          "type": "uint256"
        }
      ],
      "name": "SomeoneRequestedForMoney",
      "type": "event"
    },
    {
      "constant": false,
      "inputs": [
        {
          "name": "newadd",
          "type": "address"
        }
      ],
      "name": "onlynew",
      "outputs": [],
      "payable": false,
      "stateMutability": "nonpayable",
      "type": "function"
    },
    {
      "constant": false,
      "inputs": [
        {
          "name": "_aadhaar",
          "type": "uint256"
        }
      ],
      "name": "init_members",
      "outputs": [],
      "payable": false,
      "stateMutability": "nonpayable",
      "type": "function"
    },
    {
      "constant": false,
      "inputs": [
        {
          "name": "_req_member",
          "type": "address"
        },
        {
          "name": "__aadhaar",
          "type": "uint256"
        }
      ],
      "name": "add_Member",
      "outputs": [],
      "payable": false,
      "stateMutability": "nonpayable",
      "type": "function"
    },
    {
      "constant": true,
      "inputs": [
        {
          "name": "_master_address",
          "type": "address"
        }
      ],
      "name": "list_refrences",
      "outputs": [
        {
          "name": "",
          "type": "uint256"
        },
        {
          "name": "",
          "type": "uint256"
        },
        {
          "name": "",
          "type": "uint256"
        },
        {
          "name": "",
          "type": "uint256"
        }
      ],
      "payable": false,
      "stateMutability": "view",
      "type": "function"
    },
    {
      "constant": true,
      "inputs": [],
      "name": "getPoolMoney",
      "outputs": [
        {
          "name": "",
          "type": "uint256"
        }
      ],
      "payable": false,
      "stateMutability": "view",
      "type": "function"
    },
    {
      "constant": false,
      "inputs": [
        {
          "name": "__amount",
          "type": "uint256"
        }
      ],
      "name": "pool",
      "outputs": [],
      "payable": true,
      "stateMutability": "payable",
      "type": "function"
    },
    {
      "constant": false,
      "inputs": [
        {
          "name": "_amount_",
          "type": "uint256"
        }
      ],
      "name": "req_Money",
      "outputs": [],
      "payable": false,
      "stateMutability": "nonpayable",
      "type": "function"
    },
    {
      "constant": false,
      "inputs": [],
      "name": "bubble_sort",
      "outputs": [],
      "payable": false,
      "stateMutability": "nonpayable",
      "type": "function"
    },
    {
      "constant": true,
      "inputs": [],
      "name": "assign_loan_amount_from_pool",
      "outputs": [
        {
          "name": "",
          "type": "uint256"
        }
      ],
      "payable": false,
      "stateMutability": "view",
      "type": "function"
    },
    {
      "constant": true,
      "inputs": [
        {
          "name": "ad1",
          "type": "address"
        }
      ],
      "name": "check_time",
      "outputs": [
        {
          "name": "",
          "type": "uint256"
        }
      ],
      "payable": false,
      "stateMutability": "view",
      "type": "function"
    },
    {
      "constant": true,
      "inputs": [],
      "name": "displayAllowedForLoan",
      "outputs": [
        {
          "name": "",
          "type": "address[]"
        }
      ],
      "payable": false,
      "stateMutability": "view",
      "type": "function"
    },
    {
      "constant": false,
      "inputs": [],
      "name": "pay_loan",
      "outputs": [],
      "payable": false,
      "stateMutability": "nonpayable",
      "type": "function"
    },
    {
      "constant": true,
      "inputs": [],
      "name": "getcurrtime",
      "outputs": [
        {
          "name": "",
          "type": "uint256"
        }
      ],
      "payable": false,
      "stateMutability": "view",
      "type": "function"
    }
  ],
  "bytecode": "0x6080604052600160035560016009556000600f55426000819055506116d9806100296000396000f3006080604052600436106100d0576000357c0100000000000000000000000000000000000000000000000000000000900463ffffffff16806302c3d9cb146100d257806306874e8b1461013e578063162afafc14610169578063309652ec1461018057806345f0a44f146101ab57806348f1093c146101ec57806350da36a91461022f5780636f1863d81461025c57806373bce8bd146102c85780639965e15e146102df578063b77366be14610336578063d1eea48814610383578063f628a31d146103b0578063fe313112146103db575b005b3480156100de57600080fd5b506100e76103fb565b6040518080602001828103825283818151815260200191508051906020019060200280838360005b8381101561012a57808201518184015260208101905061010f565b505050509050019250505060405180910390f35b34801561014a57600080fd5b506101536104fa565b6040518082815260200191505060405180910390f35b34801561017557600080fd5b5061017e61050b565b005b34801561018c57600080fd5b50610195610613565b6040518082815260200191505060405180910390f35b3480156101b757600080fd5b506101d660048036038101908080359060200190929190505050610632565b6040518082815260200191505060405180910390f35b3480156101f857600080fd5b5061022d600480360381019080803573ffffffffffffffffffffffffffffffffffffffff169060200190929190505050610655565b005b34801561023b57600080fd5b5061025a600480360381019080803590602001909291905050506106e2565b005b34801561026857600080fd5b5061029d600480360381019080803573ffffffffffffffffffffffffffffffffffffffff16906020019092919050505061082a565b6040518085815260200184815260200183815260200182815260200194505050505060405180910390f35b3480156102d457600080fd5b506102dd610ad3565b005b3480156102eb57600080fd5b50610320600480360381019080803573ffffffffffffffffffffffffffffffffffffffff169060200190929190505050610c3a565b6040518082815260200191505060405180910390f35b34801561034257600080fd5b50610381600480360381019080803573ffffffffffffffffffffffffffffffffffffffff16906020019092919080359060200190929190505050610c86565b005b34801561038f57600080fd5b506103ae60048036038101908080359060200190929190505050611275565b005b3480156103bc57600080fd5b506103c5611562565b6040518082815260200191505060405180910390f35b6103f9600480360381019080803590602001909291905050506115f8565b005b6060600060606000600a8054905092508260405190808252806020026020018201604052801561043a5781602001602082028038833980820191505090505b509150600090505b600f54811115156104f157600b6000600a8381548110151561046057fe5b9060005260206000200154815260200190815260200160002060009054906101000a900473ffffffffffffffffffffffffffffffffffffffff1682828151811015156104a857fe5b9060200190602002019073ffffffffffffffffffffffffffffffffffffffff16908173ffffffffffffffffffffffffffffffffffffffff16815250508080600101915050610442565b81935050505090565b600042600881905550600854905090565b600080600091505b6001600a805490500382101561060f57600090505b600182600a80549050030381101561060257600a6001820181548110151561054c57fe5b9060005260206000200154600a8281548110151561056657fe5b906000526020600020015411156105f557600a8181548110151561058657fe5b9060005260206000200154600c81905550600a600182018154811015156105a957fe5b9060005260206000200154600a828154811015156105c357fe5b9060005260206000200181905550600c54600a600183018154811015156105e657fe5b90600052602060002001819055505b8080600101915050610528565b8180600101925050610513565b5050565b60003073ffffffffffffffffffffffffffffffffffffffff1631905090565b600a8181548110151561064157fe5b906000526020600020016000915090505481565b6000600260008373ffffffffffffffffffffffffffffffffffffffff1673ffffffffffffffffffffffffffffffffffffffff16815260200190815260200160002060040160009054906101000a900473ffffffffffffffffffffffffffffffffffffffff1673ffffffffffffffffffffffffffffffffffffffff1614156106df5760016003819055505b50565b6000600260003373ffffffffffffffffffffffffffffffffffffffff1673ffffffffffffffffffffffffffffffffffffffff16815260200190815260200160002060010154905060048110151561082157600a82908060018154018082558091505090600182039060005260206000200160009091929091909150555033600b600084815260200190815260200160002060006101000a81548173ffffffffffffffffffffffffffffffffffffffff021916908373ffffffffffffffffffffffffffffffffffffffff1602179055507fa0da870b7fcbff60609acf1d100a2afa1bc2f8c3ac1e18adb02543416f81e9e03383604051808373ffffffffffffffffffffffffffffffffffffffff1673ffffffffffffffffffffffffffffffffffffffff1681526020018281526020019250505060405180910390a1610826565b600080fd5b5050565b60008060008060026000600260008873ffffffffffffffffffffffffffffffffffffffff1673ffffffffffffffffffffffffffffffffffffffff16815260200190815260200160002060040160009054906101000a900473ffffffffffffffffffffffffffffffffffffffff1673ffffffffffffffffffffffffffffffffffffffff1673ffffffffffffffffffffffffffffffffffffffff1681526020019081526020016000206003015460026000600260008973ffffffffffffffffffffffffffffffffffffffff1673ffffffffffffffffffffffffffffffffffffffff16815260200190815260200160002060050160009054906101000a900473ffffffffffffffffffffffffffffffffffffffff1673ffffffffffffffffffffffffffffffffffffffff1673ffffffffffffffffffffffffffffffffffffffff1681526020019081526020016000206003015460026000600260008a73ffffffffffffffffffffffffffffffffffffffff1673ffffffffffffffffffffffffffffffffffffffff16815260200190815260200160002060060160009054906101000a900473ffffffffffffffffffffffffffffffffffffffff1673ffffffffffffffffffffffffffffffffffffffff1673ffffffffffffffffffffffffffffffffffffffff1681526020019081526020016000206003015460026000600260008b73ffffffffffffffffffffffffffffffffffffffff1673ffffffffffffffffffffffffffffffffffffffff16815260200190815260200160002060070160009054906101000a900473ffffffffffffffffffffffffffffffffffffffff1673ffffffffffffffffffffffffffffffffffffffff1673ffffffffffffffffffffffffffffffffffffffff1681526020019081526020016000206003015493509350935093509193509193565b60008062278d006000544203811515610ae857fe5b0490506000600382811515610af957fe5b061415610c3157600091505b600f5482111515610c2c57600b6000600a84815481101515610b2357fe5b9060005260206000200154815260200190815260200160002060009054906101000a900473ffffffffffffffffffffffffffffffffffffffff16601060006101000a81548173ffffffffffffffffffffffffffffffffffffffff021916908373ffffffffffffffffffffffffffffffffffffffff160217905550601060009054906101000a900473ffffffffffffffffffffffffffffffffffffffff1673ffffffffffffffffffffffffffffffffffffffff166108fc600a84815481101515610be857fe5b90600052602060002001549081150290604051600060405180830381858888f19350505050158015610c1e573d6000803e3d6000fd5b508180600101925050610b05565b610c36565b600080fd5b5050565b6000600260008373ffffffffffffffffffffffffffffffffffffffff1673ffffffffffffffffffffffffffffffffffffffff168152602001908152602001600020600001549050919050565b336004600260008373ffffffffffffffffffffffffffffffffffffffff1673ffffffffffffffffffffffffffffffffffffffff168152602001908152602001600020600101541015610cd757600080fd5b610ce083610655565b6001600354141561101657826001600084815260200190815260200160002060006101000a81548173ffffffffffffffffffffffffffffffffffffffff021916908373ffffffffffffffffffffffffffffffffffffffff16021790555033600460006101000a81548173ffffffffffffffffffffffffffffffffffffffff021916908373ffffffffffffffffffffffffffffffffffffffff1602179055506101006040519081016040528042815260200160035481526020018473ffffffffffffffffffffffffffffffffffffffff168152602001838152602001600460009054906101000a900473ffffffffffffffffffffffffffffffffffffffff1673ffffffffffffffffffffffffffffffffffffffff168152602001600073ffffffffffffffffffffffffffffffffffffffff168152602001600073ffffffffffffffffffffffffffffffffffffffff168152602001600073ffffffffffffffffffffffffffffffffffffffff16815250600260008573ffffffffffffffffffffffffffffffffffffffff1673ffffffffffffffffffffffffffffffffffffffff168152602001908152602001600020600082015181600001556020820151816001015560408201518160020160006101000a81548173ffffffffffffffffffffffffffffffffffffffff021916908373ffffffffffffffffffffffffffffffffffffffff1602179055506060820151816003015560808201518160040160006101000a81548173ffffffffffffffffffffffffffffffffffffffff021916908373ffffffffffffffffffffffffffffffffffffffff16021790555060a08201518160050160006101000a81548173ffffffffffffffffffffffffffffffffffffffff021916908373ffffffffffffffffffffffffffffffffffffffff16021790555060c08201518160060160006101000a81548173ffffffffffffffffffffffffffffffffffffffff021916908373ffffffffffffffffffffffffffffffffffffffff16021790555060e08201518160070160006101000a81548173ffffffffffffffffffffffffffffffffffffffff021916908373ffffffffffffffffffffffffffffffffffffffff1602179055509050506111c7565b600260035414156110a75733600260008573ffffffffffffffffffffffffffffffffffffffff1673ffffffffffffffffffffffffffffffffffffffff16815260200190815260200160002060050160006101000a81548173ffffffffffffffffffffffffffffffffffffffff021916908373ffffffffffffffffffffffffffffffffffffffff1602179055506111c6565b6003805414156111375733600260008573ffffffffffffffffffffffffffffffffffffffff1673ffffffffffffffffffffffffffffffffffffffff16815260200190815260200160002060060160006101000a81548173ffffffffffffffffffffffffffffffffffffffff021916908373ffffffffffffffffffffffffffffffffffffffff1602179055506111c5565b600460035414156111c45733600260008573ffffffffffffffffffffffffffffffffffffffff1673ffffffffffffffffffffffffffffffffffffffff16815260200190815260200160002060070160006101000a81548173ffffffffffffffffffffffffffffffffffffffff021916908373ffffffffffffffffffffffffffffffffffffffff1602179055505b5b5b5b6003600081548092919060010191905055507fc74df5c6414508e852097d2ccbbe13ca9dc37da175bdab8e2a4082fe47e4ed013384604051808373ffffffffffffffffffffffffffffffffffffffff1673ffffffffffffffffffffffffffffffffffffffff1681526020018273ffffffffffffffffffffffffffffffffffffffff1673ffffffffffffffffffffffffffffffffffffffff1681526020019250505060405180910390a1505050565b336001600083815260200190815260200160002060006101000a81548173ffffffffffffffffffffffffffffffffffffffff021916908373ffffffffffffffffffffffffffffffffffffffff1602179055506005600954101561155a5761010060405190810160405280428152602001600481526020013373ffffffffffffffffffffffffffffffffffffffff168152602001828152602001600173ffffffffffffffffffffffffffffffffffffffff168152602001600273ffffffffffffffffffffffffffffffffffffffff168152602001600373ffffffffffffffffffffffffffffffffffffffff168152602001600473ffffffffffffffffffffffffffffffffffffffff16815250600260003373ffffffffffffffffffffffffffffffffffffffff1673ffffffffffffffffffffffffffffffffffffffff168152602001908152602001600020600082015181600001556020820151816001015560408201518160020160006101000a81548173ffffffffffffffffffffffffffffffffffffffff021916908373ffffffffffffffffffffffffffffffffffffffff1602179055506060820151816003015560808201518160040160006101000a81548173ffffffffffffffffffffffffffffffffffffffff021916908373ffffffffffffffffffffffffffffffffffffffff16021790555060a08201518160050160006101000a81548173ffffffffffffffffffffffffffffffffffffffff021916908373ffffffffffffffffffffffffffffffffffffffff16021790555060c08201518160060160006101000a81548173ffffffffffffffffffffffffffffffffffffffff021916908373ffffffffffffffffffffffffffffffffffffffff16021790555060e08201518160070160006101000a81548173ffffffffffffffffffffffffffffffffffffffff021916908373ffffffffffffffffffffffffffffffffffffffff16021790555090505060096000815480929190600101919050555061155f565b600080fd5b50565b600080600d819055506000600e819055505b600a80549050600e5410156115f057600a600e5481548110151561159457fe5b9060005260206000200154600d541115156115d957600a600e548154811015156115ba57fe5b9060005260206000200154600d5401600d81905550600e54600f819055505b600e60008154809291906001019190505550611574565b600d54905090565b3073ffffffffffffffffffffffffffffffffffffffff166108fc829081150290604051600060405180830381858888f1935050505015801561163e573d6000803e3d6000fd5b507fab3779fad464c399de969e43c58d16533b72c0a6eabe2e0ffbc2aba64b8c818c3382604051808373ffffffffffffffffffffffffffffffffffffffff1673ffffffffffffffffffffffffffffffffffffffff1681526020018281526020019250505060405180910390a1505600a165627a7a72305820abba62c350e39d3777f97a107d79bf17bf6e379048399fa4847e5b182f80773b0029",
  "source": "pragma solidity ^0.4.22;\n\n\n\ncontract Driver {\n  uint TimeStart; //time stamp of the block\n  //constructor\n  constructor() public payable {\n      TimeStart=now;\n\n  }\n\n  //links aadhar to address\n  mapping(uint=>address)usr_aadhar;\n\n  //structure of member\n  struct member {\n\n    uint addtime;\n    uint counter;\n\n    address member_address;\n    uint aadhaar;\n    //for refrences of the member\n    address ref_1;\n    address ref_2;\n    address ref_3;\n    address ref_4;\n\n  }\n\n  //maps address to the member structure\n  mapping (address => member) link;\n\n  uint count=1;\n\n  address var1;\n  address var2;\n  address var3;\n  address var4;\n\n  //trigered when member is added\n  event SomeoneTriedToAddSomeone(address personWhoTried,address personWhoWasAdded);\n  //trigered when money is deposited\n  event SomeoneAddedMoneyToThePool(address personWhoSent,uint moneyHeSent);\n  //trigered when requested for loan\n  event SomeoneRequestedForMoney(address personWhoRequested,uint requestedM);\n\n  //resets counter for new member\n  function onlynew(address newadd) public{\n\n      if(link[newadd].ref_1==0x0)\n        count=1;\n\n  }\n\n  uint currtime;\n\n  //check eligibility of member for payments\n  modifier check_eligibility_of_payments(address _check_address) {\n\n    if(link[_check_address].counter < 4){\n      revert();\n    }\n    else{\n      _;\n    }\n\n  }\n\n  uint init_member_counter = 1;\n\n  //assigns initial members\n  function init_members(uint _aadhaar) public{\n    usr_aadhar[_aadhaar]=msg.sender;\n    if(init_member_counter <5){\n      link[msg.sender]=member(now,4,msg.sender,_aadhaar,0x1,0x2,0x3,0x4);\n      init_member_counter++;\n    }\n    else{\n      revert();\n    }\n\n  }\n\n  //validates new member by refrences\n  function add_Member(address _req_member,uint __aadhaar) public check_eligibility_of_payments(msg.sender) {\n\n    onlynew(_req_member);\n\n    if(count==1)\n    {usr_aadhar[__aadhaar]=_req_member;\n      var1=msg.sender;\n      link[_req_member]=member(now,count,_req_member,__aadhaar,var1,0,0,0);\n    }\n    else if (count==2)\n    {\n      link[_req_member].ref_2=msg.sender;\n    }\n    else if (count==3)\n    {\n      link[_req_member].ref_3=msg.sender;\n    }\n\n    else if (count==4)\n    {\n      link[_req_member].ref_4=msg.sender;\n    }\n\n    count++;\n\n    emit SomeoneTriedToAddSomeone(msg.sender,_req_member);\n\n  }\n\n  //show aadhar refrences of a member\n  function list_refrences(address _master_address) public constant returns (uint,uint,uint,uint) {\n\n    return (link[link[_master_address].ref_1].aadhaar,link[link[_master_address].ref_2].aadhaar,link[link[_master_address].ref_3].aadhaar,link[link[_master_address].ref_4].aadhaar);\n\n  }\n\n  //shows the money in the pool\n  function getPoolMoney() public constant returns (uint){\n\n    return this.balance;\n\n  }\n\n  //deposit money in the pool\n  function pool(uint __amount) public payable {\n\n    this.transfer(__amount);\n    SomeoneAddedMoneyToThePool(msg.sender,__amount);\n\n  }\n\n  uint[] public amounts;\n//requested money mapped to member address\n  mapping (uint => address) amount_map;\n\n  modifier onlyafter6()\n  {\n      uint memtime=link[msg.sender].addtime;\n      if(memtime==0)\n      {\n          revert();\n      }\n      uint nowtime=now;\n      uint _days=(nowtime-memtime)/(24*60*60);\n      if(_days >= 180)\n      {\n          _;\n      }\n      else\n      {\n          revert();\n      }\n\n  }\n\n  //Checks if the member is valid\n  modifier onlymember()\n  {\n      uint memcount=link[msg.sender].counter;\n      if(memcount >= 4)\n      {\n        _;\n      }\n      else\n      {\n          revert();\n      }\n  }\n//To request money from the pool\n  function req_Money(uint _amount_) public onlymember {\n\n    amounts.push(_amount_);\n    amount_map[_amount_] = msg.sender;\n\n   SomeoneRequestedForMoney(msg.sender,_amount_);\n  }\n\n  uint temp;\n\n  function bubble_sort(){\n\n    for(uint j=0;j<amounts.length-1;j++){\n\n      for(uint k=0;k<amounts.length-j-1;k++){\n\n        if(amounts[k]>amounts[k+1]){\n\n          temp = amounts[k];\n          amounts[k] = amounts[k+1];\n          amounts[k+1] = temp;\n\n        }\n      }\n    }\n  }\n\n  uint sum;\n\n  uint t;\n\n  uint counter_sum=0;\n//Total distributable money from the pool\n  function assign_loan_amount_from_pool() public constant returns (uint){\n\n    sum = 0;\n\n   for(t=0;t<amounts.length;t++){\n\n    if(sum<=amounts[t]){\n\n        sum=sum+amounts[t];\n         counter_sum = t;\n\n    }\n   }\n\n   return sum;\n\n  }\n\n  function check_time(address ad1) public constant returns(uint)\n  {\n      return(link[ad1].addtime);\n  }\n//Address of members who will receive loan\n  function displayAllowedForLoan() constant returns(address[]){\n\n    uint length = amounts.length;\n    address[] memory addr = new address[](length);\n\n    for(uint q=0; q <= counter_sum; q++ ){\n\n      addr[q] = amount_map[amounts[q]];\n\n    }\n\n    return addr ;\n  }\n\n  address temp_address;\n//Check if the month is end of three months cycle\n  modifier every_3_months {\n\n    uint months=(now-TimeStart)/(24*60*60*30);\n    if(months%3==0)\n    {\n        _;\n    }\n    else\n    {\n        revert();\n    }\n\n  }\n//Pay the members the requested loan amount\n  function pay_loan() public every_3_months {\n\n    for(uint w=0; w <= counter_sum; w++ ){\n\n      temp_address = amount_map[amounts[w]];\n      temp_address.transfer(amounts[w]);\n\n    }\n  }\n\n function getcurrtime() public constant returns(uint)\n  {\n\n      currtime=now;\n      return currtime;\n  }\n\n  function () payable{\n  }\n\n}\n\n",
  "sourcePath": "/home/debjyoti/Desktop/MicroChain/contracts/Driver.sol",
  "compiler": {
    "name": "solc",
    "version": "0.4.24+commit.e67f0147.Emscripten.clang"
  },
  "schemaVersion": "2.0.1",
  "updatedAt": "2018-07-28T11:05:52.101Z"
}